{
  "contractName": "SpaceVending",
  "abi": [
    {
      "inputs": [],
      "stateMutability": "nonpayable",
      "type": "constructor"
    },
    {
      "anonymous": false,
      "inputs": [
        {
          "indexed": false,
          "internalType": "uint256",
          "name": "idMoedasEmitida",
          "type": "uint256"
        },
        {
          "indexed": false,
          "internalType": "string",
          "name": "nomeMoedasEmitida",
          "type": "string"
        },
        {
          "indexed": false,
          "internalType": "uint256",
          "name": "valorMoedasEmitida",
          "type": "uint256"
        },
        {
          "indexed": false,
          "internalType": "address payable",
          "name": "owner",
          "type": "address"
        },
        {
          "indexed": false,
          "internalType": "bool",
          "name": "vendida",
          "type": "bool"
        }
      ],
      "name": "MoedasEmitida",
      "type": "event"
    },
    {
      "anonymous": false,
      "inputs": [
        {
          "indexed": false,
          "internalType": "uint256",
          "name": "idMoedasVendida",
          "type": "uint256"
        },
        {
          "indexed": false,
          "internalType": "string",
          "name": "nomeMoedasVendida",
          "type": "string"
        },
        {
          "indexed": false,
          "internalType": "uint256",
          "name": "valorMoedasVendida",
          "type": "uint256"
        },
        {
          "indexed": false,
          "internalType": "address payable",
          "name": "owner",
          "type": "address"
        },
        {
          "indexed": false,
          "internalType": "bool",
          "name": "vendida",
          "type": "bool"
        }
      ],
      "name": "MoedasVedida",
      "type": "event"
    },
    {
      "inputs": [
        {
          "internalType": "uint256",
          "name": "",
          "type": "uint256"
        }
      ],
      "name": "moedas",
      "outputs": [
        {
          "internalType": "uint256",
          "name": "idMoedas",
          "type": "uint256"
        },
        {
          "internalType": "string",
          "name": "nomeMoedas",
          "type": "string"
        },
        {
          "internalType": "uint256",
          "name": "valor",
          "type": "uint256"
        },
        {
          "internalType": "address payable",
          "name": "owner",
          "type": "address"
        },
        {
          "internalType": "bool",
          "name": "vendida",
          "type": "bool"
        }
      ],
      "stateMutability": "view",
      "type": "function"
    },
    {
      "inputs": [],
      "name": "nometradeEth",
      "outputs": [
        {
          "internalType": "string",
          "name": "",
          "type": "string"
        }
      ],
      "stateMutability": "view",
      "type": "function"
    },
    {
      "inputs": [],
      "name": "quantidadeMoedas",
      "outputs": [
        {
          "internalType": "uint256",
          "name": "",
          "type": "uint256"
        }
      ],
      "stateMutability": "view",
      "type": "function"
    },
    {
      "inputs": [
        {
          "internalType": "string",
          "name": "_nome",
          "type": "string"
        },
        {
          "internalType": "uint256",
          "name": "_valor",
          "type": "uint256"
        }
      ],
      "name": "emitirMoedas",
      "outputs": [],
      "stateMutability": "nonpayable",
      "type": "function"
    },
    {
      "inputs": [
        {
          "internalType": "uint256",
          "name": "_id",
          "type": "uint256"
        }
      ],
      "name": "comprarMoedas",
      "outputs": [],
      "stateMutability": "payable",
      "type": "function"
    }
  ],
  "bytecode": "0x608060405260006001553480156200001657600080fd5b506040518060400160405280601281526020017f64415050205350414345204d414348494e450000000000000000000000000000815250600090816200005d9190620002de565b50620003c5565b600081519050919050565b7f4e487b7100000000000000000000000000000000000000000000000000000000600052604160045260246000fd5b7f4e487b7100000000000000000000000000000000000000000000000000000000600052602260045260246000fd5b60006002820490506001821680620000e657607f821691505b602082108103620000fc57620000fb6200009e565b5b50919050565b60008190508160005260206000209050919050565b60006020601f8301049050919050565b600082821b905092915050565b600060088302620001667fffffffffffffffffffffffffffffffffffffffffffffffffffffffffffffffff8262000127565b62000172868362000127565b95508019841693508086168417925050509392505050565b6000819050919050565b6000819050919050565b6000620001bf620001b9620001b3846200018a565b62000194565b6200018a565b9050919050565b6000819050919050565b620001db836200019e565b620001f3620001ea82620001c6565b84845462000134565b825550505050565b600090565b6200020a620001fb565b62000217818484620001d0565b505050565b5b818110156200023f576200023360008262000200565b6001810190506200021d565b5050565b601f8211156200028e57620002588162000102565b620002638462000117565b8101602085101562000273578190505b6200028b620002828562000117565b8301826200021c565b50505b505050565b600082821c905092915050565b6000620002b36000198460080262000293565b1980831691505092915050565b6000620002ce8383620002a0565b9150826002028217905092915050565b620002e98262000064565b67ffffffffffffffff8111156200030557620003046200006f565b5b620003118254620000cd565b6200031e82828562000243565b600060209050601f83116001811462000356576000841562000341578287015190505b6200034d8582620002c0565b865550620003bd565b601f198416620003668662000102565b60005b82811015620003905784890151825560018201915060208501945060208101905062000369565b86831015620003b05784890151620003ac601f891682620002a0565b8355505b6001600288020188555050505b505050505050565b610e6680620003d56000396000f3fe60806040526004361061004a5760003560e01c80632f0463a51461004f578063397a9ae814610090578063b9449e07146100bb578063cdc99d96146100e4578063ed0ed29d1461010f575b600080fd5b34801561005b57600080fd5b506100766004803603810190610071919061078b565b61012b565b6040516100879594939291906108b3565b60405180910390f35b34801561009c57600080fd5b506100a5610216565b6040516100b2919061090d565b60405180910390f35b3480156100c757600080fd5b506100e260048036038101906100dd9190610a5d565b61021c565b005b3480156100f057600080fd5b506100f9610380565b6040516101069190610ab9565b60405180910390f35b6101296004803603810190610124919061078b565b61040e565b005b600260205280600052604060002060009150905080600001549080600101805461015490610b0a565b80601f016020809104026020016040519081016040528092919081815260200182805461018090610b0a565b80156101cd5780601f106101a2576101008083540402835291602001916101cd565b820191906000526020600020905b8154815290600101906020018083116101b057829003601f168201915b5050505050908060020154908060030160009054906101000a900473ffffffffffffffffffffffffffffffffffffffff16908060030160149054906101000a900460ff16905085565b60015481565b600082511161022a57600080fd5b6000811161023757600080fd5b6001600081548092919061024a90610b6a565b91905055506040518060a0016040528060015481526020018381526020018281526020013373ffffffffffffffffffffffffffffffffffffffff168152602001600015158152506002600060015481526020019081526020016000206000820151816000015560208201518160010190816102c59190610d5e565b506040820151816002015560608201518160030160006101000a81548173ffffffffffffffffffffffffffffffffffffffff021916908373ffffffffffffffffffffffffffffffffffffffff16021790555060808201518160030160146101000a81548160ff0219169083151502179055509050507f4cff4a5e103cd286dd99c8f5267c4f51acdf8e92a96e5ab8e82cc5e4cb82a1b460015483833360006040516103749594939291906108b3565b60405180910390a15050565b6000805461038d90610b0a565b80601f01602080910402602001604051908101604052809291908181526020018280546103b990610b0a565b80156104065780601f106103db57610100808354040283529160200191610406565b820191906000526020600020905b8154815290600101906020018083116103e957829003601f168201915b505050505081565b6000600260008381526020019081526020016000206040518060a00160405290816000820154815260200160018201805461044890610b0a565b80601f016020809104026020016040519081016040528092919081815260200182805461047490610b0a565b80156104c15780601f10610496576101008083540402835291602001916104c1565b820191906000526020600020905b8154815290600101906020018083116104a457829003601f168201915b50505050508152602001600282015481526020016003820160009054906101000a900473ffffffffffffffffffffffffffffffffffffffff1673ffffffffffffffffffffffffffffffffffffffff1673ffffffffffffffffffffffffffffffffffffffff1681526020016003820160149054906101000a900460ff16151515158152505090506000816060015190506000826000015111801561056a5750600154826000015111155b61057357600080fd5b816040015134101561058457600080fd5b81608001511561059357600080fd5b3373ffffffffffffffffffffffffffffffffffffffff168173ffffffffffffffffffffffffffffffffffffffff16036105cb57600080fd5b33826060019073ffffffffffffffffffffffffffffffffffffffff16908173ffffffffffffffffffffffffffffffffffffffff168152505081600260008581526020019081526020016000206000820151816000015560208201518160010190816106369190610d5e565b506040820151816002015560608201518160030160006101000a81548173ffffffffffffffffffffffffffffffffffffffff021916908373ffffffffffffffffffffffffffffffffffffffff16021790555060808201518160030160146101000a81548160ff0219169083151502179055509050508073ffffffffffffffffffffffffffffffffffffffff166108fc349081150290604051600060405180830381858888f193505050501580156106f1573d6000803e3d6000fd5b507fd85a05eb77545b34210a518c15562ac00462f3c1c20a295ae0a998eeec9bfe17600154836020015184604001513360016040516107349594939291906108b3565b60405180910390a1505050565b6000604051905090565b600080fd5b600080fd5b6000819050919050565b61076881610755565b811461077357600080fd5b50565b6000813590506107858161075f565b92915050565b6000602082840312156107a1576107a061074b565b5b60006107af84828501610776565b91505092915050565b6107c181610755565b82525050565b600081519050919050565b600082825260208201905092915050565b60005b838110156108015780820151818401526020810190506107e6565b60008484015250505050565b6000601f19601f8301169050919050565b6000610829826107c7565b61083381856107d2565b93506108438185602086016107e3565b61084c8161080d565b840191505092915050565b600073ffffffffffffffffffffffffffffffffffffffff82169050919050565b600061088282610857565b9050919050565b61089281610877565b82525050565b60008115159050919050565b6108ad81610898565b82525050565b600060a0820190506108c860008301886107b8565b81810360208301526108da818761081e565b90506108e960408301866107b8565b6108f66060830185610889565b61090360808301846108a4565b9695505050505050565b600060208201905061092260008301846107b8565b92915050565b600080fd5b600080fd5b7f4e487b7100000000000000000000000000000000000000000000000000000000600052604160045260246000fd5b61096a8261080d565b810181811067ffffffffffffffff8211171561098957610988610932565b5b80604052505050565b600061099c610741565b90506109a88282610961565b919050565b600067ffffffffffffffff8211156109c8576109c7610932565b5b6109d18261080d565b9050602081019050919050565b82818337600083830152505050565b6000610a006109fb846109ad565b610992565b905082815260208101848484011115610a1c57610a1b61092d565b5b610a278482856109de565b509392505050565b600082601f830112610a4457610a43610928565b5b8135610a548482602086016109ed565b91505092915050565b60008060408385031215610a7457610a7361074b565b5b600083013567ffffffffffffffff811115610a9257610a91610750565b5b610a9e85828601610a2f565b9250506020610aaf85828601610776565b9150509250929050565b60006020820190508181036000830152610ad3818461081e565b905092915050565b7f4e487b7100000000000000000000000000000000000000000000000000000000600052602260045260246000fd5b60006002820490506001821680610b2257607f821691505b602082108103610b3557610b34610adb565b5b50919050565b7f4e487b7100000000000000000000000000000000000000000000000000000000600052601160045260246000fd5b6000610b7582610755565b91507fffffffffffffffffffffffffffffffffffffffffffffffffffffffffffffffff8203610ba757610ba6610b3b565b5b600182019050919050565b60008190508160005260206000209050919050565b60006020601f8301049050919050565b600082821b905092915050565b600060088302610c147fffffffffffffffffffffffffffffffffffffffffffffffffffffffffffffffff82610bd7565b610c1e8683610bd7565b95508019841693508086168417925050509392505050565b6000819050919050565b6000610c5b610c56610c5184610755565b610c36565b610755565b9050919050565b6000819050919050565b610c7583610c40565b610c89610c8182610c62565b848454610be4565b825550505050565b600090565b610c9e610c91565b610ca9818484610c6c565b505050565b5b81811015610ccd57610cc2600082610c96565b600181019050610caf565b5050565b601f821115610d1257610ce381610bb2565b610cec84610bc7565b81016020851015610cfb578190505b610d0f610d0785610bc7565b830182610cae565b50505b505050565b600082821c905092915050565b6000610d3560001984600802610d17565b1980831691505092915050565b6000610d4e8383610d24565b9150826002028217905092915050565b610d67826107c7565b67ffffffffffffffff811115610d8057610d7f610932565b5b610d8a8254610b0a565b610d95828285610cd1565b600060209050601f831160018114610dc85760008415610db6578287015190505b610dc08582610d42565b865550610e28565b601f198416610dd686610bb2565b60005b82811015610dfe57848901518255600182019150602085019450602081019050610dd9565b86831015610e1b5784890151610e17601f891682610d24565b8355505b6001600288020188555050505b50505050505056fea2646970667358221220a790467bad3c4ad78f3330d203a59cca27524a91213c3cedcc199594fc8568a764736f6c63430008100033",
  "immutableReferences": {},
  "source": "// SPDX-License-Identifier: MIT\r\npragma solidity >=0.4.22 <0.9.0;\r\n\r\ncontract SpaceVending {\r\n    string public nometradeEth;\r\n\r\n    uint public quantidadeMoedas = 0;\r\n   \r\n    mapping(uint => Moedas) public moedas;\r\n\r\n    struct Moedas {\r\n        uint idMoedas;\r\n        string nomeMoedas;\r\n        uint valor;\r\n        address payable owner; // dono\r\n        bool vendida;\r\n    }\r\n\r\n    event MoedasEmitida(\r\n        uint idMoedasEmitida,\r\n        string nomeMoedasEmitida,\r\n        uint valorMoedasEmitida,\r\n        address payable owner,\r\n        bool vendida\r\n\r\n    );\r\n\r\n    event MoedasVedida(\r\n        uint idMoedasVendida,\r\n        string  nomeMoedasVendida,\r\n        uint valorMoedasVendida,\r\n        address payable owner,\r\n        bool vendida\r\n\r\n    );\r\n\r\n    constructor() {\r\n      nometradeEth = \"dAPP SPACE MACHINE\"; \r\n    }\r\n\r\n    function emitirMoedas(string memory _nome, uint _valor) public {\r\n        require(bytes(_nome).length > 0); //Verificar se o produto tem nome vlido\r\n\r\n        require(_valor > 0); //verifica se o valor digitado  valido\r\n\r\n        quantidadeMoedas ++; //contabiliza a quantidade de moedas\r\n\r\n        moedas[quantidadeMoedas] = Moedas(quantidadeMoedas, _nome, _valor, payable(msg.sender), false); //Inserir moedas no meu estoque\r\n\r\n        emit MoedasEmitida(quantidadeMoedas, _nome, _valor,  payable(msg.sender), false);//chamar evento\r\n    }\r\n\r\n    function comprarMoedas(uint _id) public payable {\r\n        \r\n        Moedas memory _moedas = moedas[_id];\r\n\r\n        address payable _vendedor = _moedas.owner;\r\n\r\n        require(_moedas.idMoedas > 0 && _moedas.idMoedas <= quantidadeMoedas); //verifica se o produto que vc quer comprar tem id vlido\r\n\r\n        require(msg.value >= _moedas.valor); //verificar se tem Ether suficiente na transao\r\n\r\n        require(!_moedas.vendida); //verifica se a moeda j no foi vendida\r\n\r\n        require(_vendedor != msg.sender); //verifica se o comprador no  o vendedor\r\n\r\n        _moedas.owner =  payable(msg.sender);\r\n\r\n        moedas[_id] = _moedas; //atualiza o estoque de moedas\r\n\r\n        payable(_vendedor).transfer(msg.value); //enviar ao vendedor os Ether da venda de Moedas\r\n\r\n        emit MoedasVedida(quantidadeMoedas, _moedas.nomeMoedas, _moedas.valor,  payable(msg.sender), true);\r\n    }\r\n\r\n\r\n}",
  "sourcePath": "C:\\Users\\aldam\\estudo\\aula-maquina-virtual\\contracts\\SpaceVending.sol",
  "compiler": {
    "name": "solc",
    "version": "0.8.16+commit.07a7930e.Emscripten.clang"
  },
  "schemaVersion": "3.4.9",
  "updatedAt": "2022-09-03T15:58:47.985Z",
  "devdoc": {
    "kind": "dev",
    "methods": {},
    "version": 1
  },
  "userdoc": {
    "kind": "user",
    "methods": {},
    "version": 1
  }
}